:06000000020100020134C0
:03000B000201E10E
:030013000201588F
:03001B000201CA15
:100100007581077590FF75B0FFC29075302DE53091
:1001100012017D758911758D0B758BDC758C0075E1
:100120008A00D288D28AD2A8D2AAD2ABD2A9D2AF20
:10013000D28E80FEC0E0C0D07F147E32DEFEDFFAB9
:1001400020B210E530B44B0280092405F530E530CB
:1001500012017DD0D0D0E032C0E0C0D07F147E321A
:10016000DEFEDFFA20B311E530B42D02800AC3941D
:1001700005F530E53012017DD0D0D0E032B42D0746
:1001800075329275312322B4320775328675310E7D
:1001900022B437077532797531B922B43C0775320C
:1001A0006D75318422B4410775326175314F22B4C7
:1001B000460775325575311A22B44B0775324875AA
:1001C00031E52275329275312322C28F758D0B7500
:1001D0008BDCC28CC29085328C85318AD290D28CD5
:0801E00032C28DC290C28C32C4
:00000001FF
