:03000000020100FA
:100100007580FF7590FF75A00075B0FF758901754A
:10011000803875A00175A0007D0212019475800CD5
:1001200075A00175A0007D0112019475800175A074
:100130000175A0007D0212019475808075A0017583
:10014000A0007D011201941201A8B4FF0280F8758D
:10015000800175A00175A0007D0112019475808059
:1001600075A00175A00075F00A84B40004742080A5
:10017000022430F58075A00375A002E5F02430F567
:100180008075A00375A0021201A8B4FFFA7D0212C7
:10019000019480B3758CEC758A78C28DD28C308DC9
:1001A000FDC28CC28DDDED221201C0F9B4FF012227
:1001B0007D011201941201C0FAE9C39A70EAE922A2
:1001C0007590FF75B0FF7D0112019475B0FE7D0141
:1001D000120194E590541FB41F030201E00202349F
:1001E00075B0FD7D01120194E590541FB41F030208
:1001F00001F502025575B0FB7D01120194E59054A2
:100200001FB41F0302020A02027675B0F77D0112C5
:100210000194E590541FB41F0302021F0202977558
:10022000B0EF7D01120194E590541FB41F0374FFD9
:10023000220202B8B41E03740122B41D0374022208
:10024000B41B03740322B41703740422B40F0374A1
:10025000052274FF22B41E03740622B41D03740722
:1002600022B41B03740822B41703740922B40F03C9
:10027000740A2274FF22B41E03740B22B41D03748B
:100280000C22B41B03740D22B41703740E22B40F96
:1002900003740F2274FF22B41E03741022B41D03D2
:1002A000741122B41B03741222B41703741322B402
:1002B0000F0374142274FF22B41E03741522B41D9C
:1002C00003741622B41B03741722B4170374182284
:0902D000B40F0374192274FF221B
:00000001FF
