:10000000020058898288838B00EC4D6036E4E0F66C
:1000100008A31DBDFFF31C80F0B800118B00EC4D50
:100020006021E7F609081DBDFFF41C80F189828874
:10003000838B00EC4D600CE493F608A31DBDFFF329
:100040001C80F022E4F5D075813978207A19F60801
:0B005000DAFC12017F020000020044F5
:1001000073616E6563686B610053614E65346B416A
:10011000008026E4F535F5368C378D3880080536B5
:10012000E53670020535E537B53507E538B53602F1
:1001300080065002800280E62280D8800A8D80539B
:10014000A0F9D2A0C2A02280F4800B8D80D2A1C2DF
:10015000A2D2A0C2A02280F380237C007D64120181
:10016000117D3812013B7D0E12013B7D0612013BD1
:100170007D0112013B7C007D321201112280DB02E5
:1001800002A9780179007A007B247D097C001200A5
:1001900019780179097A007B2D7D087C00120019FD
:1001A0001201587D8712013BE4F520F521E5212459
:1001B000F8E52034FF50028002800280207424255C
:1001C00021F987051201490521E52170020520E585
:1001D0002124F8E52034FF5002800280E0E4F5227B
:1001E000F523E52324F0E52234FF5002800280034A
:1001F0000202A57DC012013BE4F520F521E5212492
:10020000F0E52034FF500280028002807A740FC330
:100210009523FD74009522FCECB52006EDB5210276
:10022000800450258000740FC39523FD740095222F
:10023000FCED2408FDEC3400FCECB52006EDB52106
:100240000280065002800280048000801F740FC369
:100250009523FD74009522FCE521C39DFBE5209CC0
:10026000FA742D2BF9870512014980057D201201B2
:10027000490521E52170020520E52124F0E520341F
:10028000FF5002800280867C007D0512011105234B
:10029000E52370020522E52324F0E52234FF500215
:0C02A00080030201F30201DD2202018252
:00000001FF
