:100000000200CBE5836003E49322A882E622E58325
:100010006004E4938003A882E6F822E5836004E4A8
:10002000938003A882E6F922E5836004E4938003C9
:10003000A882E6FA22E5836004E4938003A882E6BE
:10004000FB22E5836004E4938003A882E6FC22E5BA
:10005000836004E4938003A882E6FD22E5836004C4
:10006000E4938003A882E6FE22E5836004E49380A3
:1000700003A882E6FF22898288838B00EC4D6036DC
:10008000E4E0F608A31DBDFFF31C80F0B800118B5F
:1000900000EC4D6021E7F609081DBDFFF41C80F15E
:1000A000898288838B00EC4D600CE493F608A31DD5
:1000B000BDFFF31C80F022E4F5D075813978207AF9
:0E00C00019F608DAFC1201AB0200000200B7CC
:10010000B2A0AEA5B8ABA073616E65346B61008020
:1001100026E4F535F5368C378D3880080536E5361A
:1001200070020535E537B53507E538B53602800686
:100130005002800280E62280D8800A8D8053A0F988
:10014000D2A0C2A02280F4800B8D80D2A1C2A2D204
:10015000A0C2A02280F380237C007D6412010F7D69
:10016000381201397D0E1201397D061201397D01E7
:100170001201397C007D3212010F2280DB802A754A
:1001800020008B218C228D238013E5202523F582EE
:10019000E43522F58312004F1201470520E520C304
:1001A00095214002800280E22280D40202AD7801D3
:1001B00079007A007B247D077C0012008C7801791D
:1001C000077A007B2B7D087C0012008C1201567D83
:1001D00087120139E4F520F521E52124F9E52034E1
:1001E000FF500280028002802074242521F98705B7
:1001F0001201470521E52170020520E52124F9E5DA
:100200002034FF5002800280E0E4F522F5237DC017
:10021000120139E4F520F521E52124F0E52034FF31
:10022000500280028002805FE5232521F534E5221B
:100230003520F533E53424F0E5336480347F500213
:100240008002800CE53424F0F534E53334FFF533D7
:10025000E53424F9E5336480347F40028002800C69
:10026000742B2534F9870512014780057D20120182
:10027000470521E52170020520E52124F0E5203421
:10028000FF5002800280A10523E52370020522E5CC
:100290002324F0E52234FF500280028005E4F52299
:1002A000F5237C007D0A12010F02020E220201AE2C
:00000001FF
